:020000040800F2
:1000000038100020810100081D2000082D1C000868
:1000100000000000000000000000000000000000E0
:10002000000000000000000000000000B3230008F2
:100030000000000000000000B1230008B523000804
:10004000B1010008B1010008B1010008B1010008C8
:10005000B1010008B1010008B1010008B1010008B8
:10006000B1010008B1010008B1010008B1010008A8
:10007000B1010008B1010008B1010008B101000898
:10008000B10100080000000000000000B1010008FC
:1000900000000000B1010008B1010008B101000832
:1000A00000000000B1010008B1010008B101000822
:1000B000B101000800000000B10100083D3900084E
:1000C00000F002F800F030F80CA030C8083824180E
:1000D0002D18A246671EAB4654465D46AC4201D180
:1000E00000F022F87E460F3E0FCCB6460126334282
:1000F00000D0FB1AA246AB4633431847583D0000D8
:10010000783D00000023002400250026103A01D38A
:1001100078C1FBD8520700D330C100D50B607047BF
:100120001FB51FBD10B510BD00F0B5F91146FFF7A2
:10013000F7FF03F09FFC00F0CDF903B4FFF7F2FFE7
:1001400003BC00F0D3F9000070B505460C46164616
:1001500002E00FCC0FC5103E102EFAD2082E02D3AB
:1001600003CC03C5083E042E07D301CC01C5361FBE
:1001700003E021782970641C6D1C761EF9D270BDD5
:100180000F4880F308880F480168090E0E4A914213
:1001900005D10E480E4901600E480F4901600F4815
:1001A00080470F480047FEE7FEE7FEE7FEE7FEE771
:1001B000FEE700000B480C490C4A0D4B704700004D
:1001C00038100020040000001F000000181002403A
:1001D0000100000000000140000000003124000880
:1001E000C1000008380A002038100020380C002018
:1001F000380C0020FEB5054610460C46184373D057
:10020000AE468C460020AD1A01469C4167D3664637
:10021000002701243D46B61A9D4102D313463A46B3
:100220002124654676462F04360C3E432D0CB61A23
:100230009D4104D3150C1B042B4312041034654656
:1002400076462F06360A3E432D0AB61A9D4104D340
:10025000150E1B022B4312020834654676462F0703
:1002600036093E432D09B61A9D4104D3150F1B01D3
:100270002B431201241D65467646AF07B6083E4360
:10028000AD08B61A9D4104D3950F9B002B439200F5
:10029000A41C65467646EF0776083E436D08B61AFD
:1002A0009D411AD392185B41641C16E000187646F3
:1002B00065464941B71A9D410191009009D36046B6
:1002C000B11A98418E468446009801990025401C39
:1002D0006941DD0752082A435B08641EE6D5724671
:1002E000634603B0F0BDFFE700200146C046C046AC
:1002F0002A462346F5E701E004C0091F0429FBD282
:100300008B0701D50280801CC90700D0027070479E
:1003100000290BD0C30702D00270401C491E0229DD
:1003200004D3830702D50280801C891EE3E70022E4
:10033000EEE70022DFE7002203098B422CD3030AF9
:100340008B4211D300239C464EE003460B433CD422
:10035000002243088B4231D303098B421CD3030A8A
:100360008B4201D394463FE0C3098B4201D3CB01BA
:10037000C01A524183098B4201D38B01C01A5241EA
:1003800043098B4201D34B01C01A524103098B42EE
:1003900001D30B01C01A5241C3088B4201D3CB00D9
:1003A000C01A524183088B4201D38B00C01A5241BC
:1003B00043088B4201D34B00C01A5241411A00D26C
:1003C00001465241104670475DE0CA0F00D04942D5
:1003D000031000D34042534000229C4603098B4245
:1003E0002DD3030A8B4212D3FC22890112BA030ACD
:1003F0008B420CD3890192118B4208D3890192114F
:100400008B4204D389013AD0921100E08909C309D3
:100410008B4201D3CB01C01A524183098B4201D3D5
:100420008B01C01A524143098B4201D34B01C01AC0
:10043000524103098B4201D30B01C01A5241C30838
:100440008B4201D3CB00C01A524183088B4201D3A7
:100450008B00C01A5241D9D243088B4201D34B00C2
:10046000C01A5241411A00D20146634652415B1004
:10047000104601D34042002B00D5494270476346E5
:100480005B1000D3404201B50020C046C04602BD0B
:10049000704770477047754600F024F8AE46050077
:1004A00069465346C008C000854618B020B5FFF71E
:1004B00081FE60BC00274908B6460026C0C5C0C5FD
:1004C000C0C5C0C5C0C5C0C5C0C5C0C5403D490048
:1004D0008D46704710B50446C046C0462046FFF71B
:1004E0002CFE10BD00487047D80900200149182093
:1004F000ABBEFEE726000200704770B58C18057889
:10050000401C6B075B0F01D10378401C2A1106D1F8
:100510000278401C03E00678401C0E70491C5B1EEC
:10052000F9D12B0705D40023521E0DD40B70491CA2
:10053000FAE70378401CCB1A921C03E01D780D707B
:10054000491C5B1C521EF9D5A142D8D3002070BDB6
:1005500072B6FEE770B5044600F0B2F80546601CBE
:1005600002D004480078241800F0AAF8401BA042EA
:10057000FAD370BD9C000020F8B500228FE001275F
:1005800097403B407ED00C79A407A40F012C01D0EA
:10059000022C10D1856854000326A640B543CE68CE
:1005A000A6402E43866044680D79BC43ED06ED0FEE
:1005B0009540254345600C79E443A40708D0C568FD
:1005C00054000326A640B5438E68A6402E43C6605D
:1005D0000C79A407A40F022C0CD1D408A40027186E
:1005E0003D6A5407E40E0F26A640B5430E69A640A7
:1005F0002E433E62056854000326A640B5430E799B
:10060000B607B60FA6402E4306604C68A403A40F9D
:1006100044D0264CA56901263543A561A4699508F7
:1006200034400094224CAD002F19BD689407240F6C
:100630000F26A640B5430926F606B04201D1002692
:100640000AE01C4EB04201D1012605E01A4EB0422C
:1006500001D1022600E00526A6402E43BE60174DBC
:10066000AC684E689C43F60200D51C43AC60EC6855
:100670004E689C43B60200D51C43EC606C684E6823
:100680009C4300E00AE0B60300D51C436C602C6874
:100690004E689C43F60300D51C432C60521C0B682B
:1006A0001C46D44000D06AE7F8BD000000100240AC
:1006B0000000014000040048000800480004014018
:1006C00001488068704700009C00002070B5024619
:1006D00040325378202B1CD11378012B19D00124E0
:1006E00014702423537003681D68A5431D600368BC
:1006F0001D682603B5431D6003681D680D431D601A
:1007000000680168214301602020507000201070B3
:1007100070BD022070BD70B5024640325378202B68
:100720001BD11378012B18D0012515702423537089
:1007300003681C68AC431C6003681C680F26360203
:10074000B44309022143196000680168294301602C
:10075000202050700020107070BD022070BD00007D
:1007600070B5040006D0254640356878002600287C
:1007700002D005E0012070BD2E70204600F09AF9ED
:1007800024206870206801684908490001600F2131
:100790006068090688432168086120688268012131
:1007A000C9038A438260E0680128A06808D021223A
:1007B0009202104322689060E068022802D005E0AF
:1007C0000843F7E701202268C002506020684268B1
:1007D0000F4B1A4342602068C2688A43C260616955
:1007E00020690843A169090208432168C860216A99
:1007F000E06908432168086020680168012211430C
:1008000001606664202068702663AE70002070BDB1
:1008100000800002FFB5054604464035687883B085
:10082000202875D10C98002814D00D98002811D0DC
:10083000287801286CD001202870FFF741FF064678
:10084000012200901923D103204601F0FBFA002871
:1008500074D103E00120400260646FE022206870E0
:100860004020A870002767640C9860620D9860852E
:1008700067630E980090019604A90EC9204601F006
:100880006BFA002801D02F7058E0618D3448FF29A1
:1008900005D9FF22228501231B06009006E0618D09
:1008A00021850090208D0123C2B25B062046049969
:1008B00001F0B2FA00960022042120460E9B01F0BE
:1008C000C1FA00283AD12068406A616A0870606AFB
:1008D000401C6062208D401E80B22085618D491EC3
:1008E0006185618D00291FD000281DD1009600224E
:1008F000802120460E9B01F0A5FA00281ED1608DB4
:10090000FF2806D9FF22228501231B06009707E056
:1009100024E0608D20850097208D0123C2B25B0604
:100920002046049901F078FA608D0028C2D1324641
:1009300020460E9901F0B7FA002802D0012007B036
:10094000F0BD20682021C16120684268054B1A4033
:1009500042606970AF702F700020F0E70220EEE770
:100960000024008000E800FEFFB50546044640353F
:10097000687883B0202872D10C98002814D00D9884
:10098000002811D02878012869D001202870FFF7AD
:1009900097FE0746012200901923D103204601F05B
:1009A00051FA002871D103E00120400260646CE03C
:1009B000212068704020A870002666640C98606250
:1009C0000D98608566630E980090019704A90EC982
:1009D000204601F0F1F9002801D02E7055E0608D1D
:1009E000FF2805D9FF22228501231B06009606E079
:1009F000608D20850096208D0123C2B25B062046C3
:100A0000049901F009FA3A4620460E9901F076FA67
:100A100000283AD1606A216800788862606A401CC8
:100A20006062608D401E6085208D401E80B22085F2
:100A3000618D00291FD000281DD100970022802140
:100A400020460E9B01F0FEF900281ED1608DFF2884
:100A500006D9FF22228501231B06009607E024E029
:100A6000608D20850096208D0123C2B25B06204652
:100A7000049901F0D1F9608D0028C4D13A4620468E
:100A80000E9901F010FA002802D0012007B0F0BD45
:100A900020682021C16120684268054B1A404260ED
:100AA0006970AE702E700020F0E70220EEE70000C3
:100AB00000E800FE10B586B0044614216846FFF732
:100AC00038FC1249206888421DD1114C616901200F
:100AD0008005014361616169014005910320122194
:100AE0000090019103900021012002910490694639
:100AF0000848FFF741FDE169012040050143E1613C
:100B0000E1690140059106B010BD000000540040AD
:100B100000100240001400480248816802788918D9
:100B2000816070479C00002010B5064801681022C3
:100B300011430160032000F007F800F027F80020BF
:100B400010BD00000020024070B504460D4D7D2010
:100B50002978C000FFF7EFFB01460B480068FFF75C
:100B6000EAFB01F04BF8002809D1042C07D200223F
:100B70002146401E00F030F800206C6070BD01205E
:100B800070BD00009C000020A800002008B50A48A5
:100B90008169012211438161816911400091C2691B
:100BA00001040A43C261C06908400090034801681B
:100BB00010221143016008BD0010024000000140F6
:100BC000002805DBC106C90E0120884001490860E4
:100BD0007047000000E100E010B502F00FFF10BD0B
:100BE00010B50523DB01C3180168012217249A669A
:100BF00064010023001903704031888A1043888201
:100C0000888A022210438882184610BD704710B5AA
:100C10000C0606D54907490F2824614308182830D7
:100C200004E0282461430818FF30693099B2002A93
:100C300006D0012202730181190C4181002010BDF0
:100C400000220273C180F9E728224A4310B5121826
:100C50000523DB01C018D26B006F01F034FE10BD1C
:100C600028224A43121810B50523FF32DB01013256
:100C7000C018D26F006F01F089FE10BD70B5CA09AF
:100C80004907490F0D462823594309180123002419
:100C9000002A02D028314B7002E0FF3169314C70DC
:100CA00015220D70520185182A7A012A06D02B725E
:100CB000006802F0C9FA2C72002070BD022070BDDD
:100CC00070B50A074368120F9A4201D9012070BD1E
:100CD000CA094907490F0D4628235943091801231A
:100CE0000024002A02D028314B7002E0FF31693124
:100CF0004C708C7015220D70520185182A7A012AC9
:100D000006D02B72006802F031FB2C72002070BDFF
:100D1000022070BDF8B50B78056850249C46DE00B3
:100D200057048B69645B002F29DA64192C4D7519FF
:100D3000645BA405A40DA34203D31B1B8B6102D0EB
:100D40000DE000238B6165460368AD005E5B254FB7
:100D50003E4001277F037E40234F3E435E535206B1
:100D600009D50B7802689B00D55A204E35401E4E9F
:100D700040363543D552002C30D00A8929E0641919
:100D8000174D2D1D7519645BA405A40DA34203D353
:100D90001B1B8B6102D00DE000238B61654603684D
:100DA000AD005E5B0F4F3E4001277F037E400E4F3C
:100DB0003E435E53520609D40B7802689B00D55A15
:100DC0000A4E3540084E40363543D552002C05D0EA
:100DD0004A8949690068234602F0BBFD2046F8BDF8
:100DE000020400008FBF0000808000008F8F000091
:100DF000FEB507680197054608780C46C1000090CB
:100E0000A06916468446204640375206002320300B
:100E10003F8A002A019A75DABF18C74A8A18BA5A57
:100E20009205920D944514D96746BF1AA76111D057
:100E300071040AD500992F6889007E5ABC46BF4FBD
:100E40003E40BF4F3E4367467E52017901294BD059
:100E500062E1A3616078002802D0012811D018E077
:100E600028685022125A10180918B3480818018827
:100E70008905890D018001880122D2031143018077
:100E800007E028685022125A10180918AA480818B2
:100E9000038061782868002902D0012913D01CE062
:100EA0005021095A08182178C9000918A248001DC4
:100EB000081801888905890D018001880122D20363
:100EC0001143018009E05021095A08182178C9000E
:100ED00009189948001D0818038021782846FFF753
:100EE000B3FE70046FD417E1616989186161E1692B
:100EF0008918E1612669216AB14204D33246881A11
:100F0000206205E041E00029037101D00A46236216
:100F10006078002802D001282AD033E028685021C8
:100F2000095A08182178C900091883480818018847
:100F30008905890D01803E2A09D95109D30600D1BE
:100F4000491E038889020126F603314307E0002A7F
:100F500008D05108D30700D0491C038889020B43ED
:100F600003800FE001880123DB031943018009E0BE
:100F700028685021095A08182178C90009186E48B4
:100F80000818028093B22289C2E0BF186A4A121D73
:100F90008A18BA5A9205920D944515D36746BF1A1E
:100FA000A76112D071040AD400992F6889007E5A73
:100FB000BC46624F3E40624F3E4367467E520179D7
:100FC000012955D0A8E049E0A3616078002802D04B
:100FD000012811D018E028685022125A1018091858
:100FE0005548081801888905890D0180018801226A
:100FF000D2031143018007E028685022125A1018CA
:1010000009184D480818038061782868002902D023
:10101000012913D01CE05021095A08182178C90071
:1010200009184548001D081801888905890D0180A7
:1010300001880122D2031143018009E05021095A9D
:1010400008182178C90009183B48001D08180380BA
:1010500021782846FFF7F8FD70045DD421782868D0
:101060008900425A354B1A40354B1A43425253E0DD
:10107000616989186161E1698918E1612669216AFC
:10108000B14203D33246881A206204E0002901D01D
:101090000A462362037161782868002902D0012979
:1010A0002AD033E05021095A08182178C9000918BC
:1010B0002148001D081801888905890D01803E2AF4
:1010C00009D95109D30600D1491E03888902012696
:1010D000F603314307E0002A08D05108D30700D0B7
:1010E000491C038889020B4303800FE00188012318
:1010F000DB031943018009E05021095A08182178BF
:10110000C90009180C48001D0818028093B26289B2
:101110006169286802F039FC2078296880000A5A41
:10112000064B30331A4010235A4020235A40054BB7
:101130001A430A520020FEBD020400008F8F0000F7
:1011400080C0000080800000F8B54F07CC097F0FF9
:1011500028217943091801260025002C02D02831C6
:101160004E7002E0FF3169314D700F700A61CB7033
:10117000022B00D10D71152252018418227A012A06
:1011800006D02672006801F023FF28462572F8BDBC
:101190000220F8BD10B54C07640F282161430918DF
:1011A000FF3169318B614A610022CA614A700C705B
:1011B000006802F035F9002010BD70B54A07436899
:1011C000520F9A4201D9012070BDCD09002401239C
:1011D000002D05D028215143091828314B7005E016
:1011E000282569430918FF3169314C708B700A70EA
:1011F0001522520185182A7A012A06D02B7200681E
:1012000002F0F2F82C72002070BD022070BD70B5A3
:101210004C07640F2821614309180B64CA6301223B
:101220004C256A548B6400234B6428314A700C703F
:10123000006802F0F5F8002070BD000070B50446AB
:10124000006802F083FB010403D5204600F0E8FEAD
:1012500070BD41050DD5206840308188464A114057
:101260008180204600F008F90021204600F036F980
:1012700070BD410404D52068403081883F4A78E041
:10128000810404D52068403081883D4A71E01721EF
:101290004901C504042308226118002D1ADA2068C8
:1012A000403005889D430580206840300388934383
:1012B00003800878012805D10020087001462046E7
:1012C000FFF7A4FC204600F0EBF82068403081884E
:1012D0002C4A4EE0050510D52068403001881143A6
:1012E0000180206840308188274A11408180206831
:1012F00040300188194301800AE0050627D520689F
:10130000403085888026B54385800878002803D042
:10131000204600F017F970BD2068403005881D4355
:101320000580206840300388134303800120087043
:1013300020684030808A3C21800808400521C9018E
:101340006118486601212046FFF760FC70BD8105E9
:1013500009D52068403081880C4A114081802046A0
:1013600000F0B4F870BDC005FCD52068403081881D
:10137000074A1140818070BDFFFB0000FFBF0000E5
:10138000FFDF0000FFEF0000FFF70000FFFD00009F
:10139000FFFE0000F0B585B0040007D01520400125
:1013A0002618707A0025002803D006E0012005B039
:1013B000F0BD3572204600F043F8032070722068BB
:1013C00001F0CAFF002001270CE028214143091940
:1013D0000A46203257721072D5728D63CD63401C5D
:1013E000C0B20D6461688142EFD8002010E028216E
:1013F000414309190A46FF32613255721072D572A3
:10140000603AFF3181319567D567401CC0B20D60ED
:1014100061688142EBD82146142210316846FEF7FC
:1014200093FE0FCC103C01F08DFF24200555777200
:10143000E069012802D12046FFF7D2FB0020B6E781
:1014400008B500680A49884210D10A48C2690121DA
:10145000C9050A43C261C0690022084000901146D4
:101460001F20FFF7B9FB1F20FFF7AAFB08BD0000F4
:10147000005C00400010024070B504468068012501
:10148000022801D0FFF764F80520C001241829467E
:10149000206F01F05AFB206F01F018FB70BD0000B7
:1014A00010B504468069002806D007480169062265
:1014B0009143016100F082FF0520C0012018006FF8
:1014C00001F02BFB10BD000000ED00E0052110B580
:1014D000C9014018006F01F02AFB10BD10B515229C
:1014E00052018418227A012A09D001222272242270
:1014F0001154006802F042FA0020207210BD022050
:1015000010BD052110B5C90141180A6F2B21090131
:101510004118104601F026FB10BD70B50446152099
:1015200040012518287A01280AD001202872206855
:1015300002F0FAF9206801F0FDFE0020287270BD6B
:10154000022070BD10B504460520C0012018006FB0
:1015500001F04CFBA069002804D003480169062271
:101560001143016110BD000000ED00E0F8B5044634
:1015700000683F4DC00354D5E8690026C00007D479
:10158000E96928040143E961E96901400126009104
:1015900038480168C90511D4014608688A15104306
:1015A0000860FFF78DF8074604E0FFF789F8C01BD5
:1015B000642823D82F480068C005F6D5286A03217F
:1015C000090208401FD062680A4082421BD0286A84
:1015D0002A6A8843012109040A432A622A6A8A4343
:1015E0002A622862C0070ED0FFF76AF8074607E0B4
:1015F000FFF766F8C11B2048814201D90320F8BDDE
:10160000286A8007F4D5286A0321090288436168A3
:1016100008432862002E04D0E969012000078143B5
:10162000E9612078C00705D0286BA1688008800098
:10163000084328632078800605D5286B102188434D
:10164000E168084328632068800305D5286B802162
:1016500088436169084328632088400505D5286BC5
:10166000402188432169084328630020F8BD000019
:10167000001002400070004088130000F8B50D46CD
:1016800004005FD03D480068C007C00FA8420AD2DE
:101690003A48016849084900294301600068C007C9
:1016A000C00FA8424ED12068354E81070CD54007A7
:1016B00004D5706807210902084370607068F02142
:1016C0008843A168084370602078C0072AD060680A
:1016D000012810D0022810D0032811D031688907C2
:1016E00000292FDA71688908890001437160FEF7CB
:1016F000E7FF07460FE0316803E031688901EFE753
:10170000716B8903ECE7FEF7DBFFC11B1D488142CB
:1017100001D90320F8BD70680C2108406168890078
:101720008842F0D115480168C907C90FA9420BD9F1
:10173000016849084900294301600068C007C00FDB
:10174000A84201D00120F8BD2078400706D5706876
:10175000072109028843E1680843706000F018F827
:101760007168094A0906090F515CC84007490860B9
:101770000320FFF7E9F90020F8BD00000020024037
:101780000010024088130000443E0008A80000201A
:1017900070B5154B59680C200A4602401348042ABC
:1017A00005D0134D082A03D00C2A00D1284670BD5D
:1017B0008A02104C120FA45CDA6A0E4B1207120F49
:1017C0001033C9039A5C890F022901D0032901D083
:1017D000002301E0002328460021FEF70BFD2146EF
:1017E00002F0E6F870BD00000010024000127A001E
:1017F000006CDC02243E0008FEB504006FD02078A7
:10180000F94EFA4DC00747D068680007800F0128DD
:1018100018D068680007800F022804D16868C003E8
:10182000800F02280ED06068012812D0012189049F
:10183000002801D0052816D02868B0432860286801
:10184000884308E02868800326D560680028D5D042
:1018500022E02868304328606068002810D0FEF736
:101860002FFF074608E0286808432860F1E7FEF7E5
:1018700027FFC01B642870D828688003F7D50BE0C9
:10188000FEF71EFF074604E0FEF71AFFC01B6428A0
:10189000F1D828688003F7D4207880073FD568689E
:1018A0000007800F14D068680007800F022804D159
:1018B0006868C003800F01280AD0E0680028286803
:1018C0001ED0012108432860FEF7FAFE07460CE00F
:1018D000286880070CD5E068012800D108E080E185
:1018E000FEF7EEFEC01B0228C5D828688007F7D592
:1018F0002868F82188432169C900084328600EE060
:10190000400840002860FEF7DBFE074604E0FEF7D3
:10191000D7FEC01B0228AED828688007F7D42078ED
:10192000000723D5E0690028686A0FD00121084329
:101930006862FEF7C5FE074604E0FEF7C1FEC01B65
:10194000022898D8686A8007F7D50FE04008400061
:101950006862FEF7B5FE074605E0CAE0FEF7B0FE96
:10196000C01B022887D8686A8007F7D4207804272C
:101970004007002861DA00200190E869C00008D41F
:10198000E969B8060143E961E96901400120009174
:10199000019097480168C90511D401688215114367
:1019A0000160FEF78DFE009005E0FEF789FE0099CC
:1019B000401A642898D88E480068C005F5D5A068FC
:1019C00001280AD0002801D0052811D0286A400833
:1019D00040002862286AB84302E0286A01210843CF
:1019E0002862A068002812D0FEF76AFE00900AE084
:1019F000286A38432862F0E7FEF762FE0099411A30
:101A00007C48814275D8286A8007F5D50DE0FEF73D
:101A100057FE009006E0FEF753FE0099411A754804
:101A2000814266D8286A8007F5D40198002804D03E
:101A3000E869012109078843E8612078C00635D5A7
:101A4000606901280CD0401D686B24D0384368635E
:101A5000686B400840006863FEF732FE074622E0EC
:101A6000686B38436863686B012108436863FEF75D
:101A700027FE074604E0FEF723FEC01B022838D8E5
:101A8000686B8007F7D5686BF8218843A169C900A6
:101A9000084368630AE0B8436863F4E7FEF710FEA2
:101AA000C01B022825D8686B8007F7D420788006F1
:101AB00037D568680007800F032813D068680007CF
:101AC000800F022804D16868C003800F032809D062
:101AD000206A0028686B16D030436863FEF7F0FD7B
:101AE00006460CE0686B80031BD5206A012878D17C
:101AF00017E05BE0FEF7E4FD801B022856D8686B18
:101B00008003F7D50DE0B0436863FEF7D9FD0646C4
:101B100004E0FEF7D5FD801B022847D8686B8003E0
:101B2000F7D4606A002867D069680907890F02291D
:101B300042D001273F060228286805D0B843286014
:101B4000FEF7BEFD044633E0B8432860FEF7B8FD5B
:101B5000064604E0FEF7B4FD801B022826D828685C
:101B60008001F7D4E86A216B000900010843E862AC
:101B7000A16AE06A084369687B22D2039143084363
:101B80006860286838432860FEF79AFD044604E040
:101B9000FEF796FD001B022808D828688001F7D5BB
:101BA0002AE0FEF78DFD001B022801D90320FEBDAF
:101BB00028688001F5D41FE00128F8D06868E96A38
:101BC0000322D203A36A02409A420AD10907226B78
:101BD000090F914205D10F2189040840E16A88422A
:101BE0000AD00120FEBD00000000010000100240EC
:101BF00000700040881300000020F3E7094910B589
:101C0000401E884201D9012010BD074C60610321AC
:101C1000081F01F0F3FE0020A061072020610020D2
:101C200010BD0000FFFFFF0000E000E0FEE70168DC
:101C30008A69D243920701D400228A6200688169CE
:101C4000C943C90703D081690122114381617047EB
:101C5000F7B50446006882B0816900262746C906A8
:101C6000403735460092002944DA1021C16131E045
:101C70000398401C2ED0FEF723FD0099411A0398CB
:101C8000814201D8002825D12068416801229203B1
:101C90001140BA788369DB431B0416D401239B03EC
:101CA000994212D0202A10D0416819434160FEF7B2
:101CB00007FD009009E0FEF703FD0099401A19287E
:101CC00003D920200543012604E020688069C04331
:101CD0008006F0D420688069C043800602D5002EBB
:101CE000C6D004E0002E02D121682020C861042063
:101CF0000543012621688869C20504D501221543E0
:101D00001202CA610126410505D508210D4322684A
:101D1000C901D1610126800506D50220054321684D
:101D20000002C861012601E0002E0FD02046FFF717
:101D30007EFF20684168074A11404160606C28437B
:101D40006064202078700020B8703870304605B08C
:101D5000F0BD000000E800FEF8B504461646154840
:101D60001D46DAB20090079F0023204600F054F889
:101D70003A462046069900F0C1F8002818D12846B6
:101D8000F5B2012809D02168300A88623A46204617
:101D9000069900F0B3F800280AD120688562009700
:101DA000002240212046069B00F04CF8002800D07D
:101DB0000120F8BD00200080F8B5044616461548FD
:101DC0001D46DAB2C3020090079F204600F024F8B7
:101DD0003A462046069900F091F8002818D1284686
:101DE000F5B2012809D02168300A88623A462046B7
:101DF000069900F083F800280AD1206885620097D0
:101E0000002280212046069B00F01CF8002800D00C
:101E10000120F8BD0020008010B58905890D12044D
:101E20001143029C19430068214349004268490854
:101E3000630D034C23439A430A43426010BD0000E4
:101E4000FF63FF03F8B51D4617460E4604461EE025
:101E5000681C1CD0FEF734FC0699401AA84201D831
:101E6000002D14D120688169304688430DD00020B0
:101E7000B8420CD1616C2020014361644034607031
:101E80000020A07020700120F8BD0120F0E720683C
:101E900081693046884304D00020B842D8D0002061
:101EA000F8BD0120F9E770B516460D4604461EE060
:101EB000324629462046FFF7CBFE002801D00120FC
:101EC00070BDFEF7FDFB801BA84201D8002D0ED18E
:101ED00020688069C043800609D5616C20200143D9
:101EE0006164403460700020A0702070E7E72068D3
:101EF0008069C0438006DBD4002070BD70B51646F3
:101F00000D46044620E0324629462046FFF7A0FE53
:101F1000002801D0012070BD681C15D0FEF7D0FB51
:101F2000801BA84201D8002D0ED120688069C043D3
:101F3000800709D5616C20200143616440346070E2
:101F40000020A0702070E5E720688069C04380070A
:101F5000D9D4002070BD70B500231D460EE0040FDB
:101F60000A2C02D25E00303401E05E0037348C551A
:101F70005C00641800015B1C6570DBB29342EED319
:101F800070BD000010B5134811490160124941604D
:101F9000002181600161416181610122C161C260F2
:101FA0000162FEF7DDFB002801D072B6FEE70021DA
:101FB0000848FEF78BFB002801D072B6FEE700212F
:101FC0000448FEF7A8FB002801D072B6FEE710BD5A
:101FD00000540040B80100201A09102010B500225A
:101FE0000B490C4800F044FC002801D0FEF7B0FA81
:101FF0000949084800F021FE002801D0FEF7A8FAA0
:10200000044800F077FE002801D0FEF7A1FA10BDC9
:102010004C0000200C020020B0000020FEE7000071
:10202000FEB5044620300290AEE18A881607360FCE
:1020300033D0B1000191415A009109047ED5019934
:10204000415AD64A114080221143019A81522820D8
:1020500070430519FF356935287B00286FD0E87873
:1020600002286DD0297820688900425ACC4B1A404A
:10207000CC4B1A434252297820688A00825A520473
:102080007ED55022125ACB00C74912185918515AFE
:102090008F05BF0D75D02A89DCE0D2062ED40188C9
:1020A000BF4A803A11400122D203114301802068C7
:1020B0005021095A2546283509182878C200BA48FF
:1020C0001018085A8005800D6064E16B0818E06301
:1020D00000212046FEF7B8FD029800790028A3D021
:1020E000A8690028A0D102980079802108432168BE
:1020F0004031888102990020087145E12546FF356D
:1021000002886935130520D5098A09182878C20084
:10211000A548001D1018085A2B2183059B0DEB6163
:102120000901EA886118206801F013FC2068018821
:102130009A4A114080221143018002E0A3E067E047
:1021400075E02046FFF7DDF91EE11104D5D50188C1
:10215000924A114080221143018020685021095A7F
:10216000914E08182978361DC9008919405A8305EF
:102170009B0DEB6111D0696900290ED0EA8801E05E
:102180005CE05AE0206801F0E4FBE9696869401806
:10219000686100212046FEF763FD206801880A057A
:1021A000ABD48904890F0329A7D05021095A0818F4
:1021B000801901888905890D018029693E290BD97B
:1021C0004A09C90600D1521E038891020122D20396
:1021D00011430B43038009E0002915D04A08C907C1
:1021E00000D0521C018892021143018020680188AE
:1021F0006E4A114001221203514052005140694A77
:10220000403A11430180BFE001880122D203EBE78D
:1022100020685021095A0A182978CB006249091D03
:102220005918515A8F05BF0D18D0EA8812E0294677
:102230002046009AFEF76EFD07460FE05022CB00C5
:10224000125A59491218091D5918515A8F05BF0DB4
:1022500004D06A893B46696901F07BFBE869C019D3
:10226000E8616869C0196861A869002802D0286916
:10227000B84204D929782046FEF7F2FC03E029464B
:10228000206801F0CDF8009800067DD5282046434F
:102290002068019A3119835A414A019D803A1340BE
:1022A0000122D203134343532831C87801281DD09B
:1022B0000098C00564D420685022125A1218087879
:1022C000C30039481818105A8A698005800D824267
:1022D0004FD9121A8A614ED04A6912184A61CA69E6
:1022E0001018C861206801F09BF84DE000258D6151
:1022F000087B00283FD00098400617D54878002872
:1023000002D0012809D036E0206850231B5A181843
:102310000B78DB001B18244817E020685022125A63
:1023200010180A78D20012181F481FE04B78206856
:10233000002B02D0012B11D01DE050231B5A18187E
:102340000B78DB001B181848001D181803889B0524
:102350009B0D03800388134303800CE05022125A24
:1023600010180A78D20012180F48001D10180580A6
:1023700001E00020886109782046FEF765FC03E053
:102380002046009AFEF734FD2068014640318A88D5
:10239000120400D549E60020FEBD00008F0F0000AA
:1023A0008F8F0000C0800000020400008FBF00007B
:1023B0007047704710B5FEF7AFFB10BD10B598B071
:1023C00034216846FDF7B5FF00240D940E940F9458
:1023D000182111A81094FDF7ACFF202000900120D7
:1023E000089009946846FFF707FA002801D072B6F2
:1023F000FEE707200D9003200E900F94012110940A
:102400000DA8FFF73BF9002801D072B6FEE7074898
:10241000119010201490169411A8FFF7A7F8002827
:1024200001D072B6FEE718B010BD00002000020017
:102430007047052210B5D2018218526B526890473E
:10244000002010BD134610B50A46002100F034FBF1
:10245000002010BD134610B50A46002100F0CFFB46
:10246000002010BD10B50446802100F0ABFB002118
:10247000204600F0A7FB10BD052110B5CA01821847
:10248000002351611A46194600F016FB002010BDCA
:1024900010B50524E401022304196361C2611346E7
:1024A00002620A46002100F0AAFB002010BD0522AE
:1024B00010B5D20104218218002351611A46194631
:1024C00000F09DFB002010BD10B50A46024903A094
:1024D00000F0E0F8004810BDD00400204849442036
:1024E000436F6E66696700001220088000487047DD
:1024F0006C00002010B50A46024903A000F0CAF89B
:10250000004810BDD004002048494420496E74653D
:10251000726661636500000004200880004870470F
:102520006800002010B50A46024903A000F0B2F886
:10253000004810BDD004002053544D6963726F658C
:102540006C656374726F6E696373000010B50A4640
:10255000024903A000F09EF8004810BDD0040020FE
:1025600053544D33322048756D616E20696E746529
:10257000726661636500000010B51A200880094882
:10258000046BC16A406B081809D008220649FFF79E
:10259000E2FC0549042210312046FFF7DCFC02482A
:1025A000801E10BD80F7FF1F82000020F8B50D4689
:1025B0000446002069460880698805200A0AC0018F
:1025C0002018130001F00CFA0844050B1844443994
:1025D0004144006B237C02686946184617E0217C61
:1025E0000226406B002905D0C16A6846884701462B
:1025F000467039E0816AF8E7C9B20B0001F0F0F9E2
:1026000006040A1114171A28006B426804E0904768
:10261000014629E0006B8268002A19D0207C6946B7
:10262000F5E7006BC268F7E7006B0269F4E7006B3F
:102630004269F1E7006B8269EEE7217C002907D14E
:10264000406B416B68468847E2E7217C002904D053
:1026500029462046FFF706FFF8BD406B016B684630
:1026600088470722014642706846008800280AD041
:10267000EA88002A0AD0824200D9024668460280CF
:102680002046FFF705FFE8880028E5D12046FFF740
:102690000EFFF8BD70B5002300281DD004460025AC
:1026A00002E06D1CEDB2641C2678002EF9D16C009E
:1026B000A41C14801278CA5403225B1CCA54002440
:1026C0005B1C06E0CA545B1CDAB28C54521CD3B2B9
:1026D000401C0278002AF5D170BD01460020002977
:1026E00004D0012901D0022901D002207047012025
:1026F000704705220021D2018018806B01730846C3
:10270000704770B50446812100F0D3F800250520FC
:10271000C001E5622418A06B002802D000F053FC31
:10272000A563002070BD00000A21018000487047A9
:10273000600100202221018000487047E80000204D
:1027400022210180004870470C01002022210180D5
:10275000004870473001002010B5044604230322CE
:10276000812100F09CF90120E062102000F02CFC97
:102770000521C90161188863002803D00021017375
:10278000084610BD022010BD134610B50522D20127
:102790008418A26B247F032C08D1147B002C05D154
:1027A000012414730A46812100F029FA002010BD8B
:1027B000F8B50522D201851800226C46AB6B228049
:1027C00014460A786026324016D0202A45D14A782D
:1027D000022A0ED0032A06D00A2A06D00B2A3CD1A0
:1027E000887818603CE0012229E04888000A586097
:1027F00036E00122191D23E04A78002A06D0062A75
:102800000AD00A2A1FD00B2A27D123E02A7F032AC5
:1028100023D10222694613E04A88120A222A02D0F2
:10282000212A06D019E0CA884A2A00D94A220F4B29
:1028300005E00E4BCA88183B092A00D9092219461F
:10284000FFF726FE0CE02A7F032A06D10122194653
:102850000831F5E72A7F032A04D0FFF703FE02249C
:102860002046F8BD88789860FAE700006C010020E7
:1028700010B5002811D00523DB01C3185C6B002CB8
:1028800001D000245C63002900D01963012119776D
:10289000027000F0BDF8002010BD022010BD05221E
:1028A00010B5D2018018006CFEF70AFAFFF715FF89
:1028B00010BD052210B5D2018018006CFEF7DEF9BC
:1028C000FFF70BFF10BDF8B506460520C001341810
:1028D0001346002908D0606B4269002A02D0207F8D
:1028E00003284FD00220F8BD354660691435022810
:1028F00004D0042839D0002837D03AE02F69E8689E
:10290000B84207D9C01B82B2E86019463046FFF7CB
:10291000A1FD12E0AD6839462846FDF70CFD0029FF
:1029200012D1BD4210D3A06985420DD200221146BA
:102930003046FFF78FFD0020A06100231A4619469C
:10294000304600F0B9F814E0606BC168002904D08B
:10295000207F032801D1304688478021304600F08F
:1029600031F93046FFF788FD03E08021304600F062
:1029700029F91520400130180178012904D10021DE
:10298000017001E0304690470020F8BD70B5054663
:102990000520C0012B181646002908D0586B826903
:1029A000002A02D0187F03282DD0022070BD2C46AB
:1029B000FF3458695534032802D005281CD024E080
:1029C0002169E06888420AD9431AE3608B4200D348
:1029D0000B469AB231462846FFF734FD15E0586B96
:1029E0000169002904D0187F032801D128468847AF
:1029F0002846FFF75CFD08E00020014658612846A4
:102A000000F0E0F801E028469047002070BD00008B
:102A100010B5174905220867D201841815491648D0
:102A20002164086008204860022088600861002056
:102A30008861C86108620846FEF7ACFC002801D036
:102A4000FDF786FD002218231146206CFEF7DFF803
:102A5000582300228021206CFEF7D9F8FF23013390
:102A600000228121206CFEF7D2F8002010BD00006A
:102A700064090020E4060020005C0040CA09490601
:102A8000490E282359431B01C018006C0818002A5E
:102A900001D0203001E0FF306130807A704710B5FE
:102AA0001C460523DB01C0181346006C2246FEF7C6
:102AB0004BFBFFF712FE10BD10B50524E401001911
:102AC000006CFEF767FBFFF708FE10BD70B5002233
:102AD000044640231146FFF7E2FFE01D4026F9308F
:102AE0000125466685653346002280212046FFF792
:102AF000D6FF0520C00166622018A5610577002178
:102B0000416161604162816B002904D0406B00210A
:102B1000426820469047002070BD0521C901401839
:102B2000017F042901D1417F0177002070470521F1
:102B300010B5C90141180A7F032A04D1496BC9693C
:102B4000002900D08847002010BD01740020704784
:102B5000052210B5D2018018006CFEF7BFFCFFF70C
:102B6000BCFD10BD70B505465520C00028180446B0
:102B700000F04FF80520C001012128184161C18DE6
:102B80008161152040012818017AC806C00E0AD0BC
:102B900001280DD0022810D0C909C901284600F02B
:102BA00011F8002070BD2146284600F0A8F8F8E78B
:102BB0002146284600F0DDF9F3E72146284600F0DB
:102BC00023F9EEE7052210B5D2018018006CFEF75C
:102BD000F4FAFFF782FD10BD052110B5C9014018B8
:102BE000006CFEF79AFCFFF778FD10BD0521C901C6
:102BF0004018017F4177042101770020704710B50C
:102C00000524E4010019006CFEF701FBFFF765FDE8
:102C100010BD0A7802704A784270CB788A781B021D
:102C2000D21842804B790A791B02D21882808A79A5
:102C3000C97909025118C180704702460020002955
:102C400004D00523DB01D21851637047022070477E
:102C5000052210B5D2018218526B0224002A04D03A
:102C600012689047002800D10024204610BD0000C3
:102C700070B50E4689781E4D04462970012904D985
:102C800031462046FFF7EEFB70BD0520C00120183D
:102C9000027F022A0AD0032A0ED031462046FFF7CF
:102CA000E1FB29782046FFF7C4FB70BD002913D053
:102CB0000322616002770AE0002911D0606888422F
:102CC0000AD0C1B22046FFF7B4FB297861602046E4
:102CD000FFF7BEFF0228D3D02046FFF7E8FB70BD08
:102CE0000222027720466160FFF7A3FBF4E70000B1
:102CF000AC00002010B5FFF76FFF002010BDF8B545
:102D0000002200920A7860231A400523DB01C418D0
:102D1000002A07D0202A01D0402A6AD1626B92682B
:102D2000904768E04D78002201262B0000F058FE05
:102D30000A3F5A6155610906612C2961FFF736FC8B
:102D400059E005468888002819D1C888002816D17E
:102D50004888802813D24706207F7F0E03280ED094
:102D6000A77739462846FFF7F3FE2846FFF79FFB73
:102D7000002F02D0022020773DE026773BE0284656
:102D800037E0FFF775FF36E0CB88012B31D1237F89
:102D9000012B04D0022B02D0032B2AD104E0826045
:102DA00001220146083115E00122011D12E0227FB7
:102DB000012A03D0022A01D0032A1AD1CA88022A82
:102DC00017D1C660616A002901D00321C1600146A4
:102DD00002220C31FFF75CFB0DE0498801290AD182
:102DE00066620EE0237F012B07D0022B05D0032B58
:102DF00003D0FFF737FB0098F8BD49880129FAD1C5
:102E00006262FFF754FBF6E7F8B50A46137804460A
:102E10001D46602003400520C001002709792018C5
:102E2000002B09D0202B01D0402B77D1406B1146CD
:102E30008368204698479AE06B069B0F012B07D0CA
:102E40005378002B3BD0012B2BD0032B66D105E010
:102E5000406B1146836820469847F8BD007F0228E2
:102E600002D003287FD10BE000297CD080297AD0C2
:102E70002046FFF7A7FE80212046FFF7A3FE76E05D
:102E80005088002809D1002907D0802905D0D08892
:102E9000002802D12046FFF795FE2046FFF707FBEA
:102EA00065E0007F0228DFD003285CD1508800282D
:102EB0005DD14806F1D02046FFF7F1FCEDE7007F39
:102EC0000026022802D003284DD116E0002901D0A7
:102ED000802948D1C80906D04806400E142148432D
:102EE0000119143106E04806400E14214843011927
:102EF000FF31553102220E6031E0C8090FD00807BA
:102F0000000F142358430019806900282BD048066D
:102F1000400E142250430519143511E023E0080730
:102F2000000F142358430019FF300130806D002832
:102F300019D04806400E142250430519FF35553567
:102F4000002909D0802907D02046FFF797FD0028E7
:102F500002D00120286000E02E600222294620468F
:102F6000FFF796FA03E011462046FFF77BFA384652
:102F7000F8BD70B505460A7860200C46024003D0C3
:102F8000202A01D0402A19D10520C0012818027F2B
:102F9000012A03D0022A01D0032A0FD12179012965
:102FA0000BD8406B2146826828469047E188014350
:102FB00007D12846FFF77BFA03E021462846FFF7B2
:102FC00051FA002070BD704700487047D0060020BD
:102FD000F0B5002294460A789400025B934B1A40A5
:102FE000CB78002B5ED0012B63D0022B03D0032BB8
:102FF0005BD001239C468E4B1A4302530D78AA00E6
:10300000865A8C4C26402E431E438652894D0E7B99
:10301000024630354032002E4ED0CE78022E0E7849
:1030200072D0B700C65BBE46834F3E401E43774614
:10303000C653168A0F783618FF00BF190126B6024C
:10304000BE190F897F087F003780128A0E78121808
:10305000F600B618794AB2184E89760876001680BE
:103060004A78002A0A7876D09200865A760404D5E7
:10307000865A734F26403E4386520A789200865AFB
:10308000760605D5865A2640694C4034264386523A
:10309000CA78012A0A787DD09200845A2C402025D3
:1030A0006C40B7E001235B0201E003235B021A439B
:1030B000A1E701239B02FAE74E78002E25D0128A61
:1030C0000E781218F600B61801229202B218CE88B5
:1030D0007608760016800A789200865A760605D51C
:1030E000865A2640524C403426438652CA78012ADA
:1030F00005D009788900425A2A4020244CE00978FA
:103100008900425A2A408DE058E0158A0E782D1821
:10311000F6007619494D7519CE88760876002E800E
:10312000128A0D781218ED00AA18444DAD1C5219E0
:103130001588AD05AD0D158001260F69F6033E2FEC
:103140000AD97D09FF0600D16D1E1788AD023543EF
:103150002F4317800AE038E0002F1FD07D08FE07BC
:1031600000D06D1C1688AD022E4316800A7892009E
:10317000855A6D0404D5855A2540314C2543855226
:10318000097800290ED08900425A2D4CF13C22408A
:10319000012400E03BE06403624043E015883543CE
:1031A0001580E3E70188264AF13A11400122120313
:1031B0005140520051401943018035E0B700C65BD1
:1031C000BE46204F26403E4331E79200865A7604A1
:1031D00004D5865A1A4F26403E4386520A789200FA
:1031E000865A760605D5865A2640114C4034264329
:1031F00086520A789200845A114EF13E34400126DC
:1032000036037440760074401C43845277E7920082
:10321000845A2C401C43845209788900425A084C35
:10322000F13C22401A4342526046F0BD8F890000B3
:10323000808000008F8F00008F8E0000040400004B
:1032400080C0000080810000F0B50A780F7B364D09
:103250004C78364E364B9200002F22D0002C845AE8
:1032600040D0640403D5845A1C40344384520A7805
:103270009200845A640605D5845A2B4F1C4040376F
:103280003C4384520A789200845A1C40344384524E
:103290000A789200835A264C303423402B438352C1
:1032A00016E0002C845A0DD0640605D5845A1C40C3
:1032B0001D4B40331C43845209788900425A1C4BF1
:1032C00030330AE0640403D5845A1C4034438452EA
:1032D00009788900425A154BF13B1A402A43425261
:1032E0000020F0BD640403D5845A1C40344384524A
:1032F0000A789200845A640605D5845A0A4E1C4006
:103300004036344384520A789200845A1C40064B5B
:1033100040331C4384520A789200835A034CF13C98
:1033200023402B438352C7E78080000080C0000009
:103330008F8F00004030018B0122D20311430183A3
:1033400000207047012140300180002101808180F0
:1033500001820846704700004030034902888A43D2
:10336000028000207047000080BF000030B50A7B5B
:10337000002A30D14A78194C002A194B0A7814D007
:103380009200855A6D0605D5855A2540144C403467
:1033900025438552CA78012A1DD009788900425AEE
:1033A0000E4C30342240202412E09200855A6D04E5
:1033B00004D5855A25400B4C254385520978890050
:1033C000425A084CF13C224001242403624064002C
:1033D00062401A434252002030BD00008F8F00002F
:1033E0008080000080C0000010B54A780978094B41
:1033F0008900002A425A03D0074C2240102403E0DF
:10340000064C22400124240362401A434252002009
:1034100010BD000080800000BF8F00008FBF000043
:10342000F0B50C464B780746FE4A097B4037064606
:10343000012B08D000296FD0E07802286DD0012838
:103440006CD00120F0BDA5692069854200D90546F0
:10345000002912D0E17802291FD0206A401B206287
:1034600020788100715A4906398A6ED58919C000C1
:103470004118ED480818058018E1ABB2E2883046E3
:10348000616900F082FA388A21788019C900091828
:10349000E548001F081805800EE1216A8142207866
:1034A00075D98000315A1140E04A11433152206AE7
:1034B000401B206220788100715A4906617867D5E7
:1034C000002902D001292AD030E0398AC0008919A8
:1034D0004118D548081801888905890D01803E2DBD
:1034E00009D96909EA0600D1491E02888902012327
:1034F000DB03194307E0002D08D06908EA0700D074
:10350000491C028889020A4302800FE001880122D7
:10351000D2031143018009E0F9E022E1A2E13A8AF5
:10352000C00091194118C048081805806289ABB2E3
:103530003046616900F029FA6069401960612169CB
:10354000206A884202D9401B02E0D8E005460020EC
:1035500020626078002802D001282BD030E0388A21
:1035600021788019C9000918AF48001F0818018880
:103570008905890D01803E2D0BD96909EA0600D124
:10358000491E028889020123DB03194309E0A3E0F5
:1035900018E0002D08D06908EA0700D0491C02880D
:1035A00089020A4302800BE001880122D203114301
:1035B000018005E0388A21788019C9000918A1E046
:1035C000228974E0002902D0012928D02FE0398A0D
:1035D000C000891941189448001F081801888905FE
:1035E000890D01803E2D09D96909EA0600D1491EDD
:1035F000028889020123DB03194307E0002D08D06C
:103600006908EA0700D0491C028889020A4302803F
:103610000DE001880122D2031143018007E0398ABD
:10362000C000891941188048001F081805802289A8
:10363000ABB23046616900F0A8F960694019606179
:103640002169206A884201D9401B01E0054600201B
:1036500020626078002802D0012837D026E0388A1E
:1036600021788019C90009186F4808180188890550
:10367000890D01803E2D09D96909EA0600D1491E4C
:10368000028889020123DB03194307E0002D08D0DB
:103690006908EA0700D0491C028889020A430280AF
:1036A00004E001880122D203114301806289ABB298
:1036B0003046616900F069F920788000315A594A32
:1036C0003032114010225140202216E1398A8819E7
:1036D0002178C9000918CCE68000325A544B1A40B0
:1036E000544B1A433252388A22788019D200121869
:1036F0004D488BB2001F101803802289D8E7891922
:10370000C00041184848001F0818058058E7A16903
:103710002069814201D9091A01E008460021A1610E
:10372000398A22788919D20052183F4951180A88DB
:103730009205920D0A803E2873D94209C00600D135
:10374000521E0B8890020122D203104303430B80C8
:10375000CAE04208C00700D0521C088892021043F9
:10376000C1E0002B24D1388A21788019C9000918BA
:103770002D48001F081801888905890D01802169DD
:103780003E290BD94B09C90600D15B1E0588990259
:103790000123DB0319430D43058009E000290DD007
:1037A0004B08C90700D05B1C01889B0219430180AC
:1037B0006078002806D001284BD027E0018801233B
:1037C000DB03F3E7388A21788019C9000918164805
:1037D000081801888905890D018021693E290BD9C6
:1037E0004B09C90600D15B1E058899020123DB0342
:1037F00019430D43058009E0002926D04B08C9076D
:1038000000D05B1C01889B0219430180E0690028FD
:103810006AD020788100705A430401D543060ED443
:103820000AE059E08F8F000006040000808100004C
:103830008F8E000080800000374B184254D1705AA0
:103840001040364A104370524EE001880123DB03DA
:10385000DAE7398A88192178C90009183048081828
:10386000218AD2E7A1692069814201D9091A01E0C0
:1038700008460021A161002B21D1398A22788919BB
:10388000D20052182649091F51180A889205920D34
:103890000A803E2809D94209C30600D1521E0B886E
:1038A00092020125ED032A4307E000280ED04208CA
:1038B000C30700D0521C0B88920213430B8061781F
:1038C000002900D12CE701291ED00DE00A88012330
:1038D000DB031A430A80F2E7002800D039E70888A2
:1038E0000122D2033BE7088020788000315A0D4A3C
:1038F000114001221203514052005140074A403A00
:10390000114331520020F0BD3A8A91192278D20039
:10391000521803495118E6E740400000C0800000FB
:10392000060400008FBF0000002140308180024962
:10393000018000207047000080BF000010B50248E1
:10394000FDF77CFC10BD0000E406002040308088BC
:103950007047801810B5012292025C088018002C74
:1039600007D002880A70120A4A70801C891C641EE3
:10397000F7D1DA0701D00088087010BD002902D104
:1039800080214030818100207047801801225B1C1B
:10399000920210B55B088018002B08D04A780C788A
:1039A000120222430280801C891C5B1EF6D110BDCE
:1039B000F8B5040C8BB2264682B25E430D0C10465D
:1039C000370C5843360480190021794116466E435E
:1039D000370C36048019794126466E438919F8BDA3
:1039E00030B47446641E2578641CAB4200D21D4678
:1039F000635D5B00E31830BC184700008307FF22BB
:103A0000DB0E9A408907090E9940002808DB8308DD
:103A100009489B001818036893430B4303607047E1
:103A20000007000F0838830804489B001818C36972
:103A300093430B43C361704700E400E000ED00E0F6
:103A4000F8B515460E46074600240FE0A000801981
:103A500001886A461180408850803846009900F0FD
:103A6000BFF96420FCF776FD641CE4B2AC42EDD3F0
:103A7000F8BD0000A8B0FDF757F8FEF79FFCB4486A
:103A80004269012189050A43426142690A4006925E
:103A9000426949110A434261406908400690FEF7B5
:103AA00071FAFEF79BFA2A2000F090F92B2000F023
:103AB0008DF91322A7492A20FFF7C2FFA6486946BD
:103AC00000680690A348098B403001806946498B05
:103AD000418013229F492B20FFF7B2FF0020039063
:103AE00000900D9001900290059008900A900B9024
:103AF0000C901290049006900790269014900990D4
:103B0000159016901790002401200E900F9412AA81
:103B100021462A2000F024F926AA01212A2000F0BB
:103B20001FF914AA02212A2000F01AF915AA03216C
:103B30002A2000F015F916AA00212B2000F010F918
:103B400017AA01212B2000F00BF96A4600212A2038
:103B500000F006F901AA01212A2000F001F902AAC9
:103B600002212A2000F0FCF803AA03212A2000F0F9
:103B7000F7F804AA00212B2000F0F2F805AA012191
:103B80002B2000F0EDF8129900981390081A7D216F
:103B9000FCF7DBFB0690269901981190081A7D210D
:103BA000FCF7D3FB0790149902981090081A7D2116
:103BB000FCF7CBFB0890039F15987D21C01BFCF7F9
:103BC000C4FB0990049E16987D21801BFCF7BDFB69
:103BD0000A90059D17987D21401BFCF7B6FB0B90C2
:103BE00006980C9007980D900898069009980790F1
:103BF0000A9808900B9809900F98002802D0012885
:103C00005BD125E00C98002800DA404214281DDC26
:103C10000D98002800DA4042142817DC0698002886
:103C200000DA4042142811DC0798002800DA4042EC
:103C300014280BDC0898002800DA4042142805DC20
:103C40000998002800DA4042142836DD012033E0CC
:103C50000C98002800DA4042142875DA0D980028E4
:103C600000DA404214286FDA0698002800DA404251
:103C7000142869DA0798002800DA4042142863DA29
:103C80000898002800DA404214285DDA09980028D4
:103C900000DA4042142857DA0120641C0E90642C8C
:103CA0000BD9139812901198269010980024149014
:103CB00015971696179520460F900C980D9A0D990A
:103CC000831A4118079A0698099E8718851A099A37
:103CD0000898BC468018089A921BCE193618079689
:103CE000D61ADF0F0696FF18D60FB6185B199A186A
:103CF0007F1008927610EF1BCA0FF61B5218521055
:103D00006746C30FD21B1B18471A5B100E98D518B5
:103D1000002806D000200790064606900546074674
:103D200008901420FCF716FC06AB07CB6B461E83ED
:103D300058839983DD831F845A840C2206A907487F
:103D4000FEF722FD01E7FFE700240E94B5E700002F
:103D50000010024000000020203E00080C0200205D
:103D60007CB515460646032902D90020C0437CBD18
:103D70004C00E1B26A4600F011F8641CE1B201AAFD
:103D8000304600F00BF86A4611889288080B090546
:103D9000090A1209114329607CBD00007FB5144651
:103DA0000A4600217D250391ED00022303A96E46FA
:103DB0002AC6410001230448FCF72CFD684680898F
:103DC00040BA20807FBD0000B801002010B501225C
:103DD000D2031C2100F00CF80A20FCF7BBFB10BD3D
:103DE00013B56946CA88097900F002F81CBD0000C5
:103DF0001FB50C4600210391110A6B4619735A73C3
:103E00007D2303A9DB00022200910293019241006D
:103E1000012322460148FCF7A7FD1FBDB801002081
:103E20001B00048002030405060708090A0B0C0D99
:103E30000E0F10100102030405060708090A0B0CF7
:103E40000D0E0F100000000000000000010203042E
:103E500006070809743E000800000020B8010000B1
:103E6000FA040008883F0008B8010020800E000016
:103E70000401000812141C025015041A16041A1723
:103E800004121012401A11041A12041A1304120810
:103E90001CFF1F09041A0A041A0B04221E1BD01F40
:103EA000041A20041A210412191201121B1404C04E
:103EB0001A158016E924140819251B0825041A4D23
:103EC000041A79041AC9141AF50417040309041210
:103ED000013202164083042B57260201020301031C
:103EE0001A1A03191F11820453127A1359271B0837
:103EF00003041AB104818BF3260C811A41201A3570
:103F0000041A4D041A2904140902221301011CE0A9
:103F10003209521501030102150921110114012270
:103F20004A160705810304220A091F240A210724CF
:103F300029486912314B0A06F429CC100A050109F7
:103F400002A1010901A11008050919012903151889
:103F50000F250195037501810295017505810120E9
:103F6000281730093109381581257F750895038197
:103F700006C0093C05FF090129200E75019502B113
:083F80002275069501B101C094
:04000005080000C12E
:00000001FF
